{
  "contractName": "TransferContract",
  "abi": [
    {
      "inputs": [],
      "stateMutability": "nonpayable",
      "type": "constructor"
    },
    {
      "inputs": [],
      "name": "buyer",
      "outputs": [
        {
          "internalType": "address",
          "name": "",
          "type": "address"
        }
      ],
      "stateMutability": "view",
      "type": "function",
      "constant": true
    },
    {
      "inputs": [],
      "name": "seller",
      "outputs": [
        {
          "internalType": "address",
          "name": "",
          "type": "address"
        }
      ],
      "stateMutability": "view",
      "type": "function",
      "constant": true
    },
    {
      "inputs": [
        {
          "internalType": "address",
          "name": "_buyerAddress",
          "type": "address"
        },
        {
          "internalType": "uint256",
          "name": "_valueToTransfer",
          "type": "uint256"
        }
      ],
      "name": "transferValue",
      "outputs": [],
      "stateMutability": "nonpayable",
      "type": "function"
    }
  ],
  "bytecode": "0x608060405234801561000f575f80fd5b50335f806101000a81548173ffffffffffffffffffffffffffffffffffffffff021916908373ffffffffffffffffffffffffffffffffffffffff16021790555061067a8061005c5f395ff3fe608060405234801561000f575f80fd5b506004361061003f575f3560e01c806308551a53146100435780635a4161ff146100615780637150d8ae1461007d575b5f80fd5b61004b61009b565b604051610058919061034f565b60405180910390f35b61007b600480360381019061007691906103c9565b6100be565b005b6100856102eb565b604051610092919061034f565b60405180910390f35b5f8054906101000a900473ffffffffffffffffffffffffffffffffffffffff1681565b60015f9054906101000a900473ffffffffffffffffffffffffffffffffffffffff1673ffffffffffffffffffffffffffffffffffffffff163373ffffffffffffffffffffffffffffffffffffffff161461014d576040517f08c379a000000000000000000000000000000000000000000000000000000000815260040161014490610487565b60405180910390fd5b60015f9054906101000a900473ffffffffffffffffffffffffffffffffffffffff1673ffffffffffffffffffffffffffffffffffffffff168273ffffffffffffffffffffffffffffffffffffffff16146101dc576040517f08c379a00000000000000000000000000000000000000000000000000000000081526004016101d3906104ef565b60405180910390fd5b5f811161021e576040517f08c379a00000000000000000000000000000000000000000000000000000000081526004016102159061057d565b60405180910390fd5b5f805f9054906101000a900473ffffffffffffffffffffffffffffffffffffffff1673ffffffffffffffffffffffffffffffffffffffff1682604051610263906105c8565b5f6040518083038185875af1925050503d805f811461029d576040519150601f19603f3d011682016040523d82523d5f602084013e6102a2565b606091505b50509050806102e6576040517f08c379a00000000000000000000000000000000000000000000000000000000081526004016102dd90610626565b60405180910390fd5b505050565b60015f9054906101000a900473ffffffffffffffffffffffffffffffffffffffff1681565b5f73ffffffffffffffffffffffffffffffffffffffff82169050919050565b5f61033982610310565b9050919050565b6103498161032f565b82525050565b5f6020820190506103625f830184610340565b92915050565b5f80fd5b6103758161032f565b811461037f575f80fd5b50565b5f813590506103908161036c565b92915050565b5f819050919050565b6103a881610396565b81146103b2575f80fd5b50565b5f813590506103c38161039f565b92915050565b5f80604083850312156103df576103de610368565b5b5f6103ec85828601610382565b92505060206103fd858286016103b5565b9150509250929050565b5f82825260208201905092915050565b7f4f6e6c79207468652062757965722063616e207472616e736665722066756e645f8201527f732e000000000000000000000000000000000000000000000000000000000000602082015250565b5f610471602283610407565b915061047c82610417565b604082019050919050565b5f6020820190508181035f83015261049e81610465565b9050919050565b7f496e76616c696420627579657220616464726573732e000000000000000000005f82015250565b5f6104d9601683610407565b91506104e4826104a5565b602082019050919050565b5f6020820190508181035f830152610506816104cd565b9050919050565b7f56616c756520746f207472616e73666572206d757374206265206772656174655f8201527f72207468616e20302e0000000000000000000000000000000000000000000000602082015250565b5f610567602983610407565b91506105728261050d565b604082019050919050565b5f6020820190508181035f8301526105948161055b565b9050919050565b5f81905092915050565b50565b5f6105b35f8361059b565b91506105be826105a5565b5f82019050919050565b5f6105d2826105a8565b9150819050919050565b7f5472616e73666572206661696c65642e000000000000000000000000000000005f82015250565b5f610610601083610407565b915061061b826105dc565b602082019050919050565b5f6020820190508181035f83015261063d81610604565b905091905056fea2646970667358221220c506c573f2025e578e0bb1be255a24410a979ded015d6489588d9a1f3b4228f364736f6c63430008150033",
  "immutableReferences": {},
  "source": "// SPDX-License-Identifier: MIT\r\npragma solidity ^0.8.0;\r\n\r\ncontract TransferContract {\r\n    address public seller;\r\n    address public buyer;\r\n\r\n    constructor() {\r\n        seller = msg.sender;\r\n    }\r\n\r\n    function transferValue(address _buyerAddress, uint256 _valueToTransfer) external {\r\n        require(msg.sender == buyer, \"Only the buyer can transfer funds.\");\r\n        require(_buyerAddress == buyer, \"Invalid buyer address.\");\r\n        require(_valueToTransfer > 0, \"Value to transfer must be greater than 0.\");\r\n\r\n        (bool success, ) = seller.call{value: _valueToTransfer}(\"\");\r\n        require(success, \"Transfer failed.\");\r\n    }\r\n}\r\n",
  "sourcePath": "C:\\Users\\dylan\\Documents\\GitHub\\NFT_MarketplaceJS\\nftmarketplace\\contracts\\TransferContract.sol",
  "compiler": {
    "name": "solc",
    "version": "0.8.21+commit.d9974bed.Emscripten.clang"
  },
  "schemaVersion": "3.4.15",
  "updatedAt": "2023-08-06T15:31:57.096Z",
  "networkType": "ethereum",
  "devdoc": {
    "kind": "dev",
    "methods": {},
    "version": 1
  },
  "userdoc": {
    "kind": "user",
    "methods": {},
    "version": 1
  }
}